{
  "address": "0xA51c1fc2f0D1a1b8494Ed1FE312d7C3a78Ed91C0",
  "abi": [
    {
      "anonymous": false,
      "inputs": [
        {
          "indexed": false,
          "internalType": "uint256",
          "name": "newValue",
          "type": "uint256"
        }
      ],
      "name": "ValueChanged",
      "type": "event"
    },
    {
      "inputs": [],
      "name": "retrieve",
      "outputs": [
        {
          "internalType": "uint256",
          "name": "",
          "type": "uint256"
        }
      ],
      "stateMutability": "view",
      "type": "function"
    },
    {
      "inputs": [
        {
          "internalType": "uint256",
          "name": "newValue",
          "type": "uint256"
        }
      ],
      "name": "store",
      "outputs": [],
      "stateMutability": "nonpayable",
      "type": "function"
    },
    {
      "inputs": [],
      "name": "version",
      "outputs": [
        {
          "internalType": "uint256",
          "name": "",
          "type": "uint256"
        }
      ],
      "stateMutability": "pure",
      "type": "function"
    }
  ],
  "transactionHash": "0x42b1f9d5065c87a7f98cbb1da8ce275d6990fe96cf96414aa908eb5030962431",
  "args": [],
  "numDeployments": 1,
  "solcInputHash": "0f06187887b30182e91a13a603d19c83",
  "bytecode": "0x608060405234801561001057600080fd5b506101b9806100206000396000f3fe608060405234801561001057600080fd5b50600436106100415760003560e01c80632e64cec11461004657806354fd4d50146100645780636057361d14610082575b600080fd5b61004e61009e565b60405161005b919061010a565b60405180910390f35b61006c6100a7565b604051610079919061010a565b60405180910390f35b61009c60048036038101906100979190610156565b6100b0565b005b60008054905090565b60006001905090565b806000819055507f93fe6d397c74fdf1402a8b72e47b68512f0510d7b98a4bc4cbdf6ac7108b3c59816040516100e6919061010a565b60405180910390a150565b6000819050919050565b610104816100f1565b82525050565b600060208201905061011f60008301846100fb565b92915050565b600080fd5b610133816100f1565b811461013e57600080fd5b50565b6000813590506101508161012a565b92915050565b60006020828403121561016c5761016b610125565b5b600061017a84828501610141565b9150509291505056fea26469706673582212209a913cdd224fd39c49881f07d2a3e0e242293b9d2e3ab11f97c79ab81a50d8fe64736f6c63430008120033",
  "devdoc": {
    "kind": "dev",
    "methods": {},
    "version": 1
  },
  "userdoc": {
    "kind": "user",
    "methods": {},
    "version": 1
  },
  "storageLayout": {
    "storage": [
      {
        "astId": 1421,
        "contract": "contracts/Box.sol:Box",
        "label": "value",
        "offset": 0,
        "slot": "0",
        "type": "t_uint256"
      }
    ],
    "types": {
      "t_uint256": {
        "encoding": "inplace",
        "label": "uint256",
        "numberOfBytes": "32"
      }
    }
  }
}